S01C00004D485F506561726C5F426C696E6B795F46323032302E733337BF
S113000000000420C1010000ED010000ED0100002A
S1130010ED010000ED010000ED010000ED01000024
S1130020ED010000ED010000ED010000ED01000014
S1130030ED010000EC010000ED010000ED01000005
S1130040ED010000ED010000ED010000ED010000F4
S1130050ED010000ED010000ED010000ED010000E4
S1130060ED010000ED010000ED010000ED010000D4
S1130070ED010000ED010000ED010000ED010000C4
S1130080ED010000ED010000ED010000ED010000B4
S1130090ED010000ED010000ED010000ED010000A4
S11300A0ED010000ED010000ED010000ED01000094
S11300B0ED010000ED010000ED010000ED01000084
S11300C0ED010000ED010000ED010000ED01000074
S11300D0ED010000ED010000ED010000ED01000064
S11300E0ED010000ED010000ED010000ED01000054
S11300F0ED010000ED010000ED010000ED01000044
S1130100ED010000ED010000ED01000010B5054C0B
S1130110237833B9044B13B10448AFF300800123AF
S1130120237010BD7800002000000000902600001D
S113013008B5034B1BB103490348AFF3008008BD66
S1130140000000007C00002090260000154B002BCE
S113015008BF134B9D46A3F5803A00218B460F46FA
S11301601348144A121A02F055FA0F4B002B00D010
S113017098470E4B002B00D0984700200021040024
S11301800D000D48002802D00C48AFF3008002F0A7
S11301901DFA2000290002F095F902F003FA00BFCD
S11301A0000008000000042000000000000000001F
S11301B078000020A00000200000000000000000E3
S11301C0064880470649074A074B9A42BEBF51F882
S11301D0040B42F8040BF8E7FFF7B8FFE502000050
S11301E09C2600000000002078000020FEE700BFED
S11301F080B582B000AF00F025F878600A4BD3F8E0
S113020008311B0AC3F308033B603B6801337A6877
S1130210B2FBF3F37B60054A7B6813607B68184686
S11302200837BD4680BD00BF00400E4008000020D6
S113023080B400AF024B1846BD465DF8047B70479E
S1130240005A620280B483B000AF1C4BD3F89430E0
S113025003F00703023B032B1BD801A252F823F03F
S1130260810200007902000071020000890200008E
S1130270134B1B687B6010E04FF400437B600CE081
S1130280104B1B687B6008E00F4B1B685B087B60AE
S113029003E00D4B1B687B6000BF084BD3F80031B3
S11302A01B0A03F01F0301337A68B2FBF3F3184609
S11302B00C37BD465DF8047B704700BF00400E401C
S11302C004000020000000200C00002080B400AFD7
S11302D0034B1B681846BD465DF8047B704700BF9E
S11302E00000002080B400AF074B084A9A60064B18
S11302F0D3F88830044A43F47003C2F8883000BF4E
S1130300BD465DF8047B704700ED00E0000000008E
S113031080B487B000AFF860B9607A60FB6803F11D
S11303200473DA00BB6813449B007B617B697A68C1
S11303301A6000BF1C37BD465DF8047B704780B46B
S113034085B000AF786039607B6803F10473DA002C
S11303503B6813449B00FB60FB681B68184614371A
S1130360BD465DF8047B704780B400AF064B1B6844
S113037003F04003002B01D1012300E000231846C1
S1130380BD465DF8047B70473C300E4080B500AF3D
S1130390FFF7EAFF034683F00103DBB2002B08D129
S11303A000BF12210448FFF7CAFF0346002BF8D10F
S11303B000E000BF80BD00BF04300E4080B500AF38
S11303C0FFF7E4FF034B5B681B0C03F00303DBB292
S11303D0184680BD00300E4080B584B000AF786010
S11303E00123FB607B68124A934204D80023FB601C
S11303F00023BB6008E07B680E4A934202D80123C5
S1130400BB6001E00223BB60FA6810210A48FFF7D1
S11304107FFF094BD3F8003123F08072BB681B06C1
S113042005491343C1F8003100BF1037BD4680BDF4
S11304300048E8010090D00300400E4080B485B02D
S113044000AF786039601E4B5B6803F04073FB605B
S11304500023BB6012E01B4ABB68DB0013441A791B
S11304603B68DBB29A4206D1164ABB6852F8333075
S11304707A689A4206D9BB680133BB60BB68042B17
S1130480E9D900E000BFBB68052B02D10323FB6060
S113049005E00C4ABB68DB0013445B79FB60FB6836
S11304A01B06FB60064B5B6823F040720449FB6843
S11304B013434B6000BF1437BD465DF8047B70479F
S11304C000000E404026000080B582B000AF0E4B05
S11304D01B6C002B14BF01230023FB710A4B41F654
S11304E071321A64FFF7A4FE034600211846FFF791
S11304F0A5FFFB79002B02D0034B00221A6400BF36
S11305000837BD4680BD00BF00000E4080B584B0F2
S113051000AF786039600C4B1B6C002B14BF0123B7
S11305200023FB73084B41F671321A64396878680A
S1130530FFF784FFFB7B002B02D0034B00221A64DD
S113054000BF1037BD4680BD00000E4080B487B0A8
S113055000AF78600F237B617B6803333B617B6969
S1130560FB60FA683B69934228BF1346BB60BB68D3
S11305701B07BB60BB6818461C37BD465DF8047B8F
S11305807047000080B400AF044B5B6A1B0903F0A2
S113059003031846BD465DF8047B704700400E40D7
S11305A080B483B000AF7860074B5B6A23F03002FD
S11305B07B681B01044913434B6200BF0C37BD46E3
S11305C05DF8047B704700BF00400E4080B483B0E8
S11305D000AF78600A4BD3F8443103F00103002BD9
S11305E008D100BF064BD3F840217B681340002B91
S11305F0F8D100E000BF0C37BD465DF8047B7047BE
S113060000400E4080B400AF00BFBD465DF8047BDF
S1130610704780B400AF00BFBD465DF8047B7047EF
S113062080B586B000AF78600B46FB7000233B6159
S11306307B681B0A03F00F03013B092B44D801A27A
S113064052F823F06D06000079060000C906000088
S1130650C9060000730600007F060000890600003A
S1130660C9060000930600009F060000184B7B613A
S113067018E0184B7B6115E0174B7B6112E0174BB8
S11306807B6101233B610DE0154B7B6110233B61D2
S113069008E0144B7B614FF480333B6102E0124B62
S11306A07B6100BF7B681B0B03F01F03FB603B698E
S11306B0002B02D03869FFF789FFFB781A46F968E6
S11306C07869FFF725FE00E000BF1837BD4680BDFE
S11306D000400E40B0400E40C0400E40E0400E408E
S11306E0E8400E40F0400E4050410E4080B485B0CA
S11306F000AF78600123FB737B6803F00F03BB60DA
S1130700BB68013B072B00F2C48001A252F823F01E
S11307103107000087070000B707000093080000B6
S1130720FD0700002D080000930800005108000098
S11307305D4BD3F8943003F00703023B052B1ED81E
S113074001A252F823F000BF6D0700006707000004
S113075061070000730700007F07000079070000AD
S11307600223FB730EE00323FB730BE00423FB73F0
S113077008E00B23FB7305E00C23FB7302E0052365
S1130780FB7300BF88E0484BD3F8803003F00703C5
S1130790022B06D0042B07D0012B08D10323FB73B3
S11307A008E00223FB7305E00A23FB7302E0012344
S11307B0FB7300BF70E03C4BD3F8843003F00703B5
S11307C0013B032B16D801A252F823F0DD070000E9
S11307D0E3070000EF070000E90700000323FB73B1
S11307E00BE00223FB7308E00A23FB7305E00623F6
S11307F0FB7302E00123FB7300BF4DE02A4BD3F8E7
S1130800883003F00703022B06D0042B07D0012BFA
S113081008D10323FB7308E00223FB7305E00A23DA
S1130820FB7302E00123FB7300BF35E01E4B1B6F1B
S113083003F00103002B04D0012B05D10923FB7322
S113084005E00723FB7302E00123FB7300BF23E0F1
S1130850154BD3F85C3103F03003102B0CD0102B64
S113086002D8002B05D010E0202B08D0302B09D063
S11308700BE00123FB730BE00723FB7308E0042365
S1130880FB7305E00823FB7302E00123FB7300BF45
S113089002E00023FB7300BFFB7B18461437BD4600
S11308A05DF8047B704700BF00400E4080B58AB0FD
S11308B000AF78600B46FB7003237B62032387F849
S11308C023300023BB6100237B617B68112B19D18A
S11308D0FB78042B03D1FFF7F9FC78610BE0FB787C
S11308E0052B08D100F0C6F90246A44B9A4202D95E
S11308F000F0C0F978617B69002B03D0002178698E
S113090000F072FD7B6803F00F033B613B69013B20
S1130910072B00F2298101A252F823F03D090000BF
S11309202F0A0000410A0000690B0000330A00008E
S1130930D90A0000690B0000F70A0000FB78023BAB
S11309400A2B00F2138101A252F823F07909000066
S11309508509000091090000A30900006D0B000047
S11309606D0B00006D0B00006D0B00006D0B0000A3
S1130970B5090000C109000004237B62002387F845
S1130980233023E003237B62012387F823301DE017
S113099002237B62022387F823307948FFF71CFD8A
S11309A014E001237B62032387F823307448FFF7A4
S11309B013FD0BE005237B62032387F8233005E056
S11309C007237B62062387F8233000BF97F8233080
S11309D0062B06D097F8233001220121184600F097
S11309E057FAFFF771FDFFF70DFE7B69002B01D06D
S11309F0FFF7CCFC634A7B6A5367FFF7F9FBF860A7
S1130A00FFF720FC03461846FFF7E6FCFFF7D6FC89
S1130A1003461946F868FFF779FD7B69002B03D17B
S1130A200121002000F0E0FCFFF7F3FDA3E0564BAA
S1130A30BB61BB69002B01D0BB6900E0534BBB61B8
S1130A40BB69002B01D0BB6900E0514BBB61FB7853
S1130A50013B092B00F28C8001A252F823F000BF65
S1130A60890A00008F0A00009F0A0000710B000031
S1130A70710B0000AF0A0000710B0000710B000045
S1130A80710B0000CB0A00000023FB6120E001226F
S1130A900121002000F0FCF90223FB6118E001228F
S1130AA00121012000F0F4F90123FB6110E0FFF7BC
S1130AB0C9FB03461846FFF78FFC01220221354883
S1130AC0FFF726FC0323FB6102E00423FB6100BF64
S1130AD0BB69FA691A604EE0FB78072B02D0092B38
S1130AE004D048E0274B00221A6703E0254B01227B
S1130AF01A6700BF3FE0FB78013B072B3AD801A2FD
S1130B0052F823F0250B0000750B0000750B000054
S1130B103B0B0000750B0000750B00002B0B000055
S1130B204B0B00000023FB6112E001220121042091
S1130B3000F0AEF90123FB610AE001220121022049
S1130B4000F0A6F90223FB6102E00323FB6100BF6E
S1130B500C4BD3F85C3123F03002FB691B010949CB
S1130B601343C1F85C3106E000BF04E000BF02E0BB
S1130B7000BF00E000BF2837BD4680BD002D310115
S1130B800148E80100400E4080400E4088400E407D
S1130B9084400E40B0400E4080B483B000AF786013
S1130BA07B68294A93422FD0274A934210D8274A78
S1130BB0934221D0254A934203D8254A93421BD01D
S1130BC03AE0244A934217D0234A934218D033E0A0
S1130BD0224A934224D0214A934206D8204A93427F
S1130BE016D0204A934217D026E01F4A93421BD0C6
S1130BF01E4A93421CD01FE01D4BD3F880301CE0EA
S1130C001B4BD3F88C3018E0194BD3F8983014E010
S1130C10174BD3F89C3010E0154BD3F8A0300CE000
S1130C20134BD3F8A83008E0114BD3F8AC3004E0F0
S1130C300F4BD3F8B03000E0002318460C37BD4604
S1130C405DF8047B704700BF405DC60080841E00D1
S1130C5040420F0000093D00C0CF6A0080BA8C01F9
S1130C600024F400C0EA21010048E80180D54302D1
S1130C70B081E00F80B400AF034B1B681846BD463B
S1130C805DF8047B704700BF0C00002080B586B07F
S1130C9000AF78607868FFF77FFF78617B69002B8D
S1130CA003D07B69B3F1FF3F00BF3A4B1B683B6144
S1130CB0384A7B6813601120FFF718FD0346052BA3
S1130CC003D1FFF701FCFFF79DFC00BF1821324858
S1130CD0FFF735FB0346002BF8D17B682F4A93427C
S1130CE00DD02F4A934211D02E4A934200D012E0E5
S1130CF07B6923F0C06343F080637B610BE07B6915
S1130D0023F0C06343F000737B6104E07B6923F04C
S1130D10C0637B6100BF1120FFF7E8FC0346052B8D
S1130D2002D17868FFF758FB7A683B699A4203D985
S1130D300121786800F058FB1B4A7B69136111207C
S1130D40FFF7D4FC0346052B09D1FFF751FAF860ED
S1130D50FFF734FB03461946F868FFF7D7FBFFF7A4
S1130D6071FA03461846FFF737FB7A683B699A42E3
S1130D7003D80121002000F037FB1120FFF7B6FC57
S1130D800346052B01D1FFF744FC00BF1837BD46CD
S1130D9080BD00BF0C00002040410E4080841E0036
S1130DA000093D0040420F0000400E4090B585B060
S1130DB000AF78601120FFF799FC01220021022086
S1130DC000F066F87B685B7883F00103DBB2002BEC
S1130DD00DD07B689B7883F00103DBB2002B06D037
S1130DE07B68DB7883F00103DBB2002B00BF0023B8
S1130DF0FB607B681B7C022B01D10123FB60224B2F
S1130E005B6A23F001022049FB6813434B627B6851
S1130E101B781A4608211D48FFF77AFA7B689B88DD
S1130E20DB027A68527A1146174A0B43D362164B97
S1130E301B6B03F07F627B68DB88DB0213437A68F9
S1130E40927A1A437B681B7ADB0142EA03047B68CB
S1130E501B7A1846FFF77AFB03460B4A23431363B6
S1130E607B685B7B1A037B689B7B1B0113437A685B
S1130E70D27B1A437B681B7B1B04034913434B63DC
S1130E8000BF1437BD4690BD00400E4024400E40C4
S1130E9080B588B000AF0346FB710B46BB711346A7
S1130EA07B71FB79042B00F2B88001A252F823F085
S1130EB00D0F0000FB0E0000D70E0000C50E000051
S1130EC0E90E000001237B6102233B610123FB61E6
S1130ED00023BB6125E004237B6108233B610323DA
S1130EE0FB610223BB611CE010237B6120233B6177
S1130EF00523FB610423BB6113E040237B61802352
S1130F003B610723FB610623BB610AE04FF4807356
S1130F107B614FF400733B610923FB610823BB61D0
S1130F2000BFBB79002B5BD00023FB73FB79022B42
S1130F3011D1FFF727FB0346002B0CD1394BDB6B98
S1130F400123FB73384B5B6A03F00103012B02D1CD
S1130F500120FFF725FB344A7B69136600BFB9699A
S1130F603248FFF7ECF90346002BF8D07B79002BCD
S1130F7054D000BFF9692D48FFF7E1F90346002B6F
S1130F80F8D0FB79022B49D1FB7B002B46D0264BB2
S1130F905B6A03F00103012B05D101222021022009
S1130FA000F04AF903E00021022000F0FBF80220DF
S1130FB000F03EF8B860012200210220FFF768FF2C
S1130FC0B968022000F06EF8174A7B69136600BF07
S1130FD0F9691648FFF7B3F90346002BF8D01DE072
S1130FE0114A3B69136600BF0F4BD3F890300121BF
S1130FF0BA6901FA02F21340002BF5D17B79002B78
S11310000CD000BF084BD3F890300121FA6901FAE3
S113101002F21340002BF5D100E000BF2037BD469B
S113102080BD00BF00300E4000400E4090400E4096
S113103080B485B000AF0346FB71FB79013B032B01
S113104023D801A252F823F0591000007D100000AB
S11310506510000071100000114B1B6AC3F30803F4
S1131060FB6015E00E4B1B6903F07F03FB600FE090
S11310700B4B9B6903F07F03FB6009E0084BD3F83B
S11310809C30C3F30A03FB6002E00023FB6000BF53
S1131090FB6818461437BD465DF8047B704700BFF3
S11310A000400E4080B584B000AF03463960FB7148
S11310B0FB79013B032B6AD801A252F823F000BF4D
S11310C0D110000053110000FF100000291100008E
S11310D03B68C3F308033B6000BF1A212E48FFF7A7
S11310E02EF90346002BF8D12C4B1B6A23F4FF7313
S11310F023F0010329493A6813430B6248E03B6833
S113110003F07F033B6000BF18212348FFF717F962
S11311100346002BF8D1214B1B6923F07F021F49A2
S11311203B6813430B6133E03B6803F07F033B6090
S113113000BF19211848FFF702F90346002BF8D124
S1131140164B9B6923F07F0214493B6813438B6160
S11311501EE0124BD3F89030104B5B6A23F030033F
S11311600E4A43F0100353623B68DB0903F00F039C
S11311701846FFF7EBF9F860084B1A6B084B13405D
S11311803A681A430549FB6813430B6300E000BF48
S113119000BF1037BD4680BD40410E4000400E40A8
S11311A000F8FF0F80B584B000AF03460A46FB7118
S11311B01346BB71FFF7E6F90346002B03D14FF446
S11311C04003FB6016E0BB79202B04D0302B0AD0FF
S11311D0002B04D00BE04FF40003FB600AE04FF453
S11311E04003FB6006E04FF44003FB6002E0104B59
S11311F0FB6000BF00BF0F4BD3F89020FB68134087
S1131200FA689A42F7D1FB6803F48003002B0AD0F2
S1131210084BD3F8A03003F48063002B14BF0123E0
S11312200023DBB200E0012318461037BD4680BD21
S1131230FF33E10700400E4080B582B000AF0346A3
S1131240FB710B46BB7113467B71FB79022B00D0FB
S113125016E0BB79002B07D00C4B4FF48062C3F827
S1131260A8200A4ABB7953667B79002B07D0BA7948
S1131270FB7911461846FFF795FF034601E000BFCE
S1131280012318460837BD4680BD00BF00400E400C
S113129080B487B000AFF860B9607A60FB6803F18E
S11312A00473DA00BB6813449B007B617B697A6832
S11312B01A6000BF1C37BD465DF8047B704780B4DC
S11312C085B000AF786039607B6803F10473DA009D
S11312D03B6813449B00FB60FB681B68184614378B
S11312E0BD465DF8047B704780B400AF064B1B68B5
S11312F003F04003002B01D1012300E00023184632
S1131300BD465DF8047B70473C300E4080B500AFAD
S1131310FFF7EAFF034683F00103DBB2002B08D199
S113132000BF12210448FFF7CAFF0346002BF8D17F
S113133000E000BF80BD00BF04300E4080B500AFA8
S1131340FFF7E4FF034B5B681B0C03F00303DBB202
S1131350184680BD00300E4080B483B000AF786082
S1131360044A7B68D36200BF0C37BD465DF8047B3A
S1131370704700BF00300E4080B400AF034B5B6A7F
S11313801846BD465DF8047B704700BF00300E4030
S113139080B400AF034B00225A6300BFBD465DF822
S11313A0047B704700300E4080B400AF044B4AF613
S11313B0E8525A6300BFBD465DF8047B704700BF26
S11313C000300E4080B483B000AF0346FB71FB795C
S11313D0C3F10203102202FA03F318460C37BD4688
S11313E05DF8047B7047000080B584B000AF78607E
S11313F00B46FB70FFF778FF034683F00103DBB273
S1131400002B28D17B68002B0FD1154BD3F800316A
S11314101B0A03F01F030133BB60FEF713FF0246F0
S1131420BB6802FB03F3FB6001E07B68FB600D4BD0
S11314301B78002B09D0FB680B4A934205D8FB7834
S11314401946022000F012F806E0FB781946002045
S113145000F00CF800E000BF1037BD4680BD00BFAF
S113146000400E409C000020002D310190B587B053
S113147000AF03460A46FB711346BB71FFF734FF06
S1131480034683F00103DBB2002B31D1FFF756FF93
S113149003461A46FB7993422CD0184BD3F80031FB
S11314A01B0A03F01F0301337B61FEF7CBFE386197
S11314B03B697A6902FB03F3FB60FB79022B03D1DE
S11314C002213869FFF722F80D4CFB791846FFF723
S11314D079FF03462361BB79002B01D0FFF716FF88
S11314E0FB79002B07D100213869FFF70FF802E0E0
S11314F000BF00E000BF1C37BD4690BD00400E4059
S113150000300E4080B483B000AF78600A4B1B6893
S113151023F440727B685B781B02074913430B601A
S11315207B685B78022B01D1044B5B6A00BF0C37EC
S1131530BD465DF8047B704700300E4000400E400D
S113154080B400AF01231846BD465DF8047B7047A4
S113155080B582B000AF0C4BDB6E0B4A43F0807356
S1131560D36600210948FFF7AAFE78607B68002B48
S113157003D0042000F0B0FC02E0002000F0ACFC3A
S113158000BF0837BD4680BD00300E404C300E40D1
S113159080B48BB000AF01237B627B6A1B053B6286
S11315A0324BDB6C1B0A03F00F03FB61304B1B88CF
S11315B01A462F4B1B8828335B08134403F1280178
S11315C0FB695A1C13469B001344B1FBF3F3013B24
S11315D0BB61BB697B6107233B613A697B699342C9
S11315E028BF1346BB61BB691B06BB611F4BDB6C89
S11315F023F0EE62B9693B6A0B431C491343CB6485
S11316001C4BB3F90030002B29DB1A4BB3F9003023
S1131610FB81FA89FB8928335B08134403F1280210
S1131620FB6901335900FB6901335B080B44B2FBCE
S1131630F3F3BB60BB687B6007233B603A687B685D
S1131640934228BF1346BB60BB681B01BB60074BBA
S11316501B6D23F070020549BB6813430B6500BF83
S11316602C37BD465DF8047B704700BF00300E4048
S1131670940000209800002080B483B000AF78600C
S11316800B467B807B689AB2054B1A80054A7B889F
S1131690138000BF0C37BD465DF8047B704700BF64
S11316A0940000209800002080B483B000AF03466B
S11316B0FB71FB79002B02D0012B04D007E0074B10
S11316C0074A9A6503E0054B064A9A6500BF00BFC6
S11316D00C37BD465DF8047B704700BF00300E40F8
S11316E077402057372110B780B485B000AF034648
S11316F0FB710B46BB7113467B712D4BD3F88031C4
S1131700FB60BB79032B1DD801A252F823F000BF64
S11317102117000029170000331700003D170000AF
S1131720FB68DBB2FB600FE0FB681B0ADBB2FB600B
S11317300AE0FB681B0CDBB2FB6005E0FB681B0ED8
S1131740FB6001E000232CE07B79002B11D1FB68C6
S11317501B03FB60FB6823F47043002B01D00023C0
S11317601FE0144BDB6E23F470421249FB681343F1
S1131770CB667B79012B13D1FB681B03FB60FB68F1
S113178023F47043002B01D000230AE0094BD3F863
S1131790EC3023F470420749FB681343C1F8EC3082
S11317A0012318461437BD465DF8047B704700BF1B
S11317B0B081E00F00300E4080B489B000AFF86013
S11317C0B96011461A460B46FB711346BB710023E0
S11317D0FB610023BB61BB791B02FA79002A01D0AB
S11317E0012200E0002213437B617B6940F2011275
S11317F093422AD0B3F5817F07D2012B19D0012B54
S113180047D3B3F5807F50D073E040F20122934276
S113181027D040F20122934203D8B3F5007F50D081
S113182067E0B3F5407F58D040F20132934224D0B0
S11318305FE0364BD3F87431FB61FB691B0ADBB202
S1131840BB61FB69DBB2FB6153E0304BD3F874310D
S1131850FB61FB691B0EBB61FB691B0CDBB2FB610B
S113186047E02A4BD3F87831FB61FB691B0ADBB2F2
S1131870BB61FB69DBB2FB613BE0244BD3F87831FD
S1131880FB61FB691B0EBB61FB691B0CDBB2FB61DB
S11318902FE01E4BD3F86C31FB61FB691B0ADBB2F2
S11318A0BB61FB69DBB2FB6123E0184BD3F86C31FD
S11318B0FB61FB691B0EBB61FB691B0CDBB2FB61AB
S11318C017E0124BD3F87031FB61FB691B0ADBB2E2
S11318D0BB61FB69DBB2FB610BE00C4BD3F87031ED
S11318E0FB61FB691B0EBB61FB691B0CDBB2FB617B
S11318F000BFFB68FA691A60BB68BA691A6000BF66
S11319002437BD465DF8047B704700BFB081E00F0B
S113191080B584B000AF0346FB713E4B5B6B012B7B
S11319200CBF01230023FB73FFF73EFD00BF394BBF
S11319309B6F03F00103002BF9D1364B1B6C03F0B2
S11319400303BB60BB68002B04D001220D21324885
S1131950FFF79EFCBB68DBB2FA799A4208D1FB79A7
S1131960002B53D100220D212B48FFF791FC4DE0B1
S1131970BB68032B02D0BB68002B20D1FB79022B60
S113198002D0FB79012B1AD14FF40020FFF7E4FCBD
S113199000BF204B9B6F03F00103002BF9D11D4BBB
S11319A01B6C23F003031B4A43F00103136400BFC1
S11319B0FFF7E2FC034603F40023002BF8D000BF3A
S11319C0144B9B6F03F00103002BF9D1114B1B6CDB
S11319D023F00302FB790F4913430B6400BF0D4B43
S11319E09B6F03F00103002BF9D1FB79002B14BF8B
S11319F001230023DBB21A460D210748FFF748FCF8
S1131A00FB7B002B03D0FFF7C3FC00E000BF1037C3
S1131A10BD4680BD00300E4054300E4080B584B0C9
S1131A2000AF7860484B02229A63474B9B6B03F0EC
S1131A300F03022B01D0002381E0FFF781FD7B68B7
S1131A405B78012B02D07B685B78022B7B68DB8898
S1131A504A2B02D80023FB6015E07B68DB88B3F5D2
S1131A60FA7F03D24FF08053FB600CE07B68DB8885
S1131A7040F6C312934203D84FF00053FB6002E0D8
S1131A804FF04053FB60304BDB6C23F0405323F0AA
S1131A9001037A68B2F90C20002A01DB012100E07D
S1131AA00021FA680A4328491343CB64264BD3F830
S1131AB0EC30254A43F44073C2F8EC307B689A88D2
S1131AC0224B1A80FFF744FD7B681B891A467B680A
S1131AD0B3F90C3019461046FFF7CEFD7B689B889E
S1131AE0184600F08DF97B689B7B1846FFF7DCFDF8
S1131AF07B685B8801220121184600F02BF803461D
S1131B0083F00103DBB2002B01D0002317E00E4B5E
S1131B10DB6B0D4A43F48063D3637B685B781846C0
S1131B20FFF7F6FE7B689B7A202B01D1012300E0AE
S1131B3000231A4605210648FFF7AAFB012318468D
S1131B401037BD4680BD00BF00300E409600002017
S1131B503C300E4090B595B000AF78600B46FB70FA
S1131B601346BB700023FB6400237B6407F124034A
S1131B7000221A605A609A6007F1180300221A6062
S1131B805A609A6007F10C0300221A605A609A6046
S1131B9007F1080300210A461A800A469A707B68F6
S1131BA0B3F5E16F06D37B6840F6B832934201D8AF
S1131BB0012300E0002387F8433097F8433003F013
S1131BC0010387F8433097F8433083F00103DBB215
S1131BD0002B01D000230AE17B68B3F5E16F8CBFD1
S1131BE00123002387F8423097F84230002B0AD0B3
S1131BF04FF4E163FB6440F6B8337B647A6CFB6CAE
S1131C00D31ABB6409E04FF49663FB644FF4E163B9
S1131C107B647A6CFB6CD31ABB6497F84230002B5C
S1131C200BD0754BD3F868313B623B6A1B0E7B616A
S1131C303B6A1B0CDBB23B620AE06F4BD3F86831A2
S1131C403B623B6A1B0ADBB27B613B6ADBB23B62F1
S1131C506A4BDB6C1B0FDBB203F00303DBB23B729A
S1131C603B7A97F8422007F10C0107F11800FFF7BF
S1131C70A3FD624BD3F8EC301B0ADBB203F0030381
S1131C80DBB27B727C7A97F8422007F10C03191DB2
S1131C9007F11803181D2346FFF78EFD7A68FB6CC5
S1131CA0D31A79693A6A8A1A02FB03F2BB6CB2FB53
S1131CB0F3F3FB62FA6A3B6A1344FB627A68FB6CD7
S1131CC0D31AF968BA698A1A02FB03F2BB6CB2FB35
S1131CD0F3F37B627A6ABB6913447B627A68FB6CB8
S1131CE0D31A3969FA698A1A02FB03F2BB6CB2FB94
S1131CF0F3F3BB62BA6AFB691344BB62FA6A7B6999
S1131D009A4213D8FA6A3B6A9A420FD3BA6A3B6979
S1131D109A420BD8BA6AFB699A4207D37A6AFB687B
S1131D209A4203D87A6ABB699A4201D200235EE0E0
S1131D30BB78002B12D0314BDB6D23F4FE4323F030
S1131D400203FA6A1202134397F84220002A01D0D0
S1131D50022200E0002229491343CB65FB78002BC3
S1131D6044D0397A97F8423000221846FFF7BCFC79
S1131D70034683F00103DBB2002B01D0002336E0DD
S1131D80797A97F8423001221846FFF7ADFC0346F2
S1131D9083F00103DBB2002B01D0002327E07B6A30
S1131DA0FB63BB6ABB63BA6BFB6B934238BF1346DE
S1131DB07B627B6A7B63E7233B633A6B7B6B934277
S1131DC028BF13467B620D4B5B6E23F4FF7323F035
S1131DD001037A6A5200134397F84220002A01D083
S1131DE0012200E00022054913434B6601231846F3
S1131DF05437BD4690BD00BFB081E00F00300E40A7
S1131E0080B584B000AF78600023FB60314B1B6F5A
S1131E1003F00703BB602F4BDB6C03F00103002BC3
S1131E2014D0BB68012B11D97B68132B02D804236F
S1131E30FB6037E07B68132B05D97B68272B02D81E
S1131E400823FB602EE01023FB602BE0214BDB6CAE
S1131E5003F00103002B14D1BB68012B11D87B685C
S1131E60092B02D80423FB601CE07B68092B05D9ED
S1131E707B68132B02D80823FB6013E01023FB605C
S1131E8010E0144BDB6C03F00103002B0AD0BB6899
S1131E90012B07D87B68272B02D80823FB6001E0BD
S1131EA01023FB60FB68013BFB60FB681A02FB68C4
S1131EB01B031343FB60074BDB6C23F47F42054990
S1131EC0FB681343CB64FFF763FB00BF1037BD46C9
S1131ED080BD00BF00300E4080B584B000AF034623
S1131EE0FB7100210E48FFF7EAF9F860FB68002B4C
S1131EF002D1FB79012B01D9FB68002B00BF094BF0
S1131F001B6F23F00702FB79064913430B67064B4B
S1131F101B881846FFF774FF00BF1037BD4680BD0D
S1131F204C300E4000300E409600002080B485B046
S1131F3000AF786039607B6803F1C063FB60FB68C5
S1131F403A681A6000BF1437BD465DF8047B7047D9
S1131F5080B485B000AF786039607B6803F180633A
S1131F60FB60FB683A681A6000BF1437BD465DF831
S1131F70047B704780B584B000AFF860B9607A60C4
S1131F80B968F868FFF7E4FF7968F868FFF7CEFFEF
S1131F9000BF1037BD4680BD80B582B000AF034698
S1131FA03960FB71FB79002B1CD0FB79012B19D014
S1131FB0FB79022B16D0FB79032B13D0FB79042B6E
S1131FC010D0FB79052B0DD0FB79062B0AD0FB79B9
S1131FD0072B07D0FB79082B04D0FB79092B01D000
S1131FE0FB790A2BFA7913465B0013441B010C336B
S1131FF003F1804303F5204301213A6801FA02F218
S113200011461846FFF7A4FF00BF0837BD4680BD40
S113201080B582B000AF03463960FB71FB79002BB9
S11320201CD0FB79012B19D0FB79022B16D0FB793C
S1132030032B13D0FB79042B10D0FB79052B0DD087
S1132040FB79062B0AD0FB79072B07D0FB79082BE9
S113205004D0FB79092B01D0FB790A2BFA791346BA
S11320605B0013441B010C3303F1804303F520434D
S113207001213A6801FA02F211461846FFF756FFA9
S113208000BF0837BD4680BD80B582B000AF0346AF
S11320903960FB71FB79002B1DD0FB79012B1AD021
S11320A0FB79022B17D0FB79032B14D0FB79042B7B
S11320B016D0FB79052B0ED0FB79062B10D0FB79BB
S11320C0072B0DD0FB79082B05D0FB79092B02D007
S11320D0FB790A2B04D13B6823F00113002B00BFCA
S11320E0FA7913465B0013441B0103F1804303F5A3
S11320F020433A684FF001111846FFF73BFF00BF39
S11321000837BD4680BD000080B584B000AFB9601B
S11321107B600346FB731346BB73FB7B002B1CD015
S1132120FB7B012B19D0FB7B022B16D0FB7B032BF3
S113213013D0FB7B042B10D0FB7B052B0DD0FB7B3A
S1132140062B0AD0FB7B072B07D0FB7B082B04D084
S1132150FB7B092B01D0FB7B0A2BBB7B002B0DD017
S11321607B68002B05D0FB7BB9681846FFF750FF4E
S113217004E0FB7BB9681846FFF70EFFBB68072B2A
S113218020D82E49FA7B13465B0013441B010B44F1
S113219004331A68BB689B000F2101FA03F3DB4385
S11321A01340B97BBA68920001FA02F2114623483F
S11321B0FA7B194313465B0013441B0103440433A5
S11321C0196025E01D49FA7B13465B0013441B018B
S11321D00B4408331A68BB6803F18043083B9B0037
S11321E00F2101FA03F3DB4302EA0301BA7BBB6864
S11321F003F18043083B9B0002FA03F30F48FA7B88
S1132200194313465B0013441B010344083319604C
S1132210BB7B002B0DD17B68002B05D0FB7BB96801
S11322201846FFF7F5FE04E0FB7BB9681846FFF794
S1132230B3FE00BF1037BD4680BD00BF00A0004004
S113224080B500AF00F004F800F036F800BF80BDA0
S113225080B500AF05211448FEF728FB0121124880
S1132260FEF7DEF9002200210120FEF711FE012213
S113227001210520FEF70CFE002200210020FEF7BC
S113228007FE0A210948FEF711FB01210748FEF762
S1132290C7F901210648FEF7C3F901210548FEF7F5
S11322A0BFF900BF80BD00BF4041050002001E0011
S11322B030253E0000350A0080B500AF4FF0011113
S11322C00520FFF7E1FE0023042204210520FFF787
S11322D01BFF4FF001110520FFF7D6FE0023042257
S11322E005210520FFF710FF00BF80BD80B400AFBB
S11322F0044BDB6C1B0EDBB21846BD465DF8047B59
S1132300704700BFB081E00F80B485B000AF786043
S113231039607B6803F1C063FB60FB683A681A604C
S113232000BF1437BD465DF8047B704780B485B0A8
S113233000AF786039607B6803F18063FB60FB6801
S11323403A681A6000BF1437BD465DF8047B7047D5
S113235080B582B000AF03463960FB71FB79002B76
S11323601CD0FB79012B19D0FB79022B16D0FB79F9
S1132370032B13D0FB79042B10D0FB79052B0DD044
S1132380FB79062B0AD0FB79072B07D0FB79082BA6
S113239004D0FB79092B01D0FB790A2BFA79134677
S11323A05B0013441B010C3303F1804303F520430A
S11323B001213A6801FA02F211461846FFF7B6FF06
S11323C000BF0837BD4680BD80B582B000AF03466C
S11323D03960FB71FB79002B1CD0FB79012B19D0E0
S11323E0FB79022B16D0FB79032B13D0FB79042B3A
S11323F010D0FB79052B0DD0FB79062B0AD0FB7985
S1132400072B07D0FB79082B04D0FB79092B01D0CB
S1132410FB790A2BFA7913465B0013441B010C3336
S113242003F1804303F5204301213A6801FA02F2E3
S113243011461846FFF768FF00BF0837BD4680BD48
S113244080B582B000AF194B01225A64FFF74EFFEA
S11324500346FB71FB79002B0CD1154B4AF6E8526D
S11324601A60144B1B68134A43F004031360104BA7
S113247000221A60FB79012B05D80F4B1B680E4A0A
S113248043F4005313600D4B1B6A23F444130B4AAB
S113249043F4881313620A4B1B68094A43F4F84354
S11324A0136000BF0837BD4680BD00BF00000E406A
S11324B090310E4098310E4064310E4000400E4081
S11324C0A4310E40B0B58EB000AF324B07F11C04FE
S11324D00FCB84E80F00304B07F108041D460FCDE5
S11324E00FC42B682380FFF7ABFF2C48FEF7CEFB0D
S11324F000233B7100237B7107F11C031846FFF78F
S11325008DFA02237B713B1D1846FEF7FBFF07F192
S113251008031846FEF74AFC012201210320FEF7B6
S1132520B7FC05211120FEF7C1F900220021022089
S1132530FEF7AEFCFFF784FE00237B6302E07B6BB7
S113254001337B637B6B49F63F429342F7DD042101
S11325500520FFF7FDFE00233B6302E03B6B0133E4
S11325603B633B6B49F63F429342F7DD052105206F
S1132570FFF7EEFE0023FB6202E0FB6A0133FB621D
S1132580FB6A074A9342F8DD04210520FFF71CFF8C
S1132590D2E700BF682600007826000040420F0002
S11325A09F86010008B5074B044613B10021AFF321
S11325B00080054B1868836A03B19847204600F0F1
S11325C031F800BF000000008C26000070B50D4EED
S11325D00D4CA41BA4100025A54209D10B4E0C4C94
S11325E000F022F8A41BA4100025A54205D170BD5B
S11325F056F8253098470135EEE756F825309847C8
S11326000135F2E770000020700000207000002007
S11326107400002002440346934200D1704703F83B
S1132620011BF9E7FEE700BFF8B500BFF8BC08BC22
S11326309E467047F8B500BFF8BC08BC9E4670477C
S113264040787D0100000000005A62020001000091
S1132650C0CF6A0002000000809FD5000201000084
S1132660002D3101020200000002080705000A00E3
S1132670C8000000FFFF010001000000A000680185
S11326800A200706020A04070000000010000020C8
S10726900000000042
S10B2694B8DAFF7F0100000029
S113269C005A620200800000C0EA2101C0EA210154
S11326AC000000000000000000000000000000001A
S11326BC000000000000000000000000000000000A
S11326CC00000000000000000000000000000000FA
S11326DC00000000000000000000000000000000EA
S11326EC00000000000000000000000000000000DA
S11326FC00000000000000000000000000000000CA
S10B270C310100000D01000081
S90301C13A
